:020000040800F2
:10000000B00400204501000869150008DD0900085A
:10001000651500087D080008751C00080000000038
:1000200000000000000000000000000009170008A8
:100030008108000800000000F11500088118000880
:100040005F0100085F0100085F0100085F01000810
:100050005F0100085F0100085F0100085F01000800
:100060005F0100085F0100085F0100085F010008F0
:100070005F0100085F0100085F0100085F010008E0
:100080005F0100085F0100085F0100085F010008D0
:100090005F0100085F0100085F0100085F010008C0
:1000A0005F0100085F0100085F0100085F010008B0
:1000B0005F010008E51800085F0100085F01000803
:1000C0005F0100085F0100085F0100085F01000890
:1000D0005F0100085F0100085F0100085F01000880
:1000E0005F0100085F0100085F0100085F01000870
:1000F0005F0100085F0100085F0100085F01000860
:100100005F0100085F0100085F0100085F0100084F
:100110005F0100085F0100085F0100085F0100083F
:100120005F0100085F0100085F0100085F0100082F
:10013000DFF80CD000F00EFB00480047AD240008AB
:10014000B00400200648804706480047FEE7FEE767
:10015000FEE7FEE7FEE7FEE7FEE7FEE7FEE7FEE777
:100160008518000831010008F0B480EA0102D40FBC
:100170004200B2EB410F02D20246084611464A0045
:1001800042D0C30DDDB2C1F3C752AD1A202D35DA0E
:10019000C1F3160141F4000204B15242C5F1200638
:1001A00002FA06F12A411044B3EBD05F23D0C4B168
:1001B000012DA0EBC35009DCF0BC4FF0004202EA75
:1001C000C352DBB200F5000000F00BB9400000F1B3
:1001D000807000EBC350A0F1807040EAD1704900FC
:1001E00009E0490841EAC071A0EBC35000F50000E6
:1001F000400800EBC350F0BC00F0EAB861420122B5
:1002000002EB4101001BF6E7F0BC704781F00041B2
:10021000AAE780F00040A7E780EA010210B502F0EB
:100220000043400022D04A001FD0010E01EB1261B2
:10023000C0F35600C2F3560240F4000042F400023C
:10024000A0FB022000047F39140400D0401C50EAB7
:10025000124001D44000491EC2B20C0604EBD0107B
:10026000401C4008802A02D003E0002010BD20F08E
:100270000100002900DA0020184310BD2DE9FE4FCF
:1002800081EA030404F0004421F0004100944FF09F
:10029000000B23F0004350EA01045ED052EA03044D
:1002A0005BD0C3F30A54C1F30A552C44A4F2F334CF
:1002B0000194A0FB0254C1F3130141F48011C3F374
:1002C000130343F4801301FB024400FB034E840A32
:1002D000970A44EA815447EA8357A4FB07680295CA
:1002E0008D0A05FB07854FEA932C04FB0C54270568
:1002F000029D4FEA065847EA1637B5EB08056EEB44
:10030000070C870E920E47EA811742EA8312A7FB79
:100310000201B6EB0B0164EB00042B0D43EA0C3336
:100320005E1844EB1C50DA465146E7FB0201C5F368
:1003300013044FEA0B3343EA14534FEA0432019C8F
:1003400043EA0603A4F10C040294009CCDE900B436
:1003500000F084F803B0BDE8F08F00200146F9E713
:10036000C10F80EAE0700844CA079623002100F01C
:1003700038B800F0004230F000400AD0C10D01F55D
:100380006071C0F3160042EA0151C20840071143F0
:10039000704700200146704701F0004330B421F05F
:1003A000004150EA010206D00A0DA2F56072C1F3C5
:1003B0001301002A02DC30BC00207047440F44EADD
:1003C000C104C100E01830BC00EBC250AFF30080A4
:1003D0000029A8BF7047401C490008BF20F0010059
:1003E000704710B4B0FA80FC00FA0CF050EA010437
:1003F00004BF10BC704749B1CCF1200421FA04F4C9
:1004000011FA0CF118BF012121430843A3EB0C01A1
:10041000CB1D4FEA00614FEA102042BF002010BC04
:10042000704700EBC35010440029A4BF10BC7047B4
:10043000401C490008BF20F0010010BC704710B5F7
:10044000141E73F1000408DA401C41F100019218F7
:100450005B411A4301D120F0010010BD2DE9F04DA0
:1004600092469B4611B1B1FA81F202E0B0FA80F2F5
:100470002032904600F080F904460F4640EA0A0018
:1004800041EA0B0153465A46084313D0114653EA3A
:10049000010019D0C8F14002504600F07CF9054631
:1004A0000E4650465946424600F066F9084305D0CC
:1004B000012004E020463946BDE8F08D00200543C8
:1004C00046EAE0762C4337430A986305E40AA0EB3A
:1004D00008000022FD0A44EA47540A3002D50020F1
:1004E0000146E9E7010510196941DDE908450019F0
:1004F0006941BDE8F04DA2E72DE9FE4F804681EA53
:100500000300C00F0C46009021F0004123F000458D
:10051000B8EB0200A94105D24046214690461C4650
:100520000B46024623F00040104347D0270DC7F387
:100530000A00C3F30A510290401A019040286BDA76
:10054000C3F3130040F4801B0098924620B10023AF
:10055000D2EB030A63EB0B0B01985946C0F1400242
:10056000504600F009F906460D4650465946019A94
:1005700000F021F910EB08006141002487EA1152D4
:1005800084EAE7731A4340D0009A62B3019A012AC1
:100590004FEA075215DC001B61EB02014FF00042ED
:1005A00002EA0752CDE90042001C41F580113246B3
:1005B0002B46FFF753FF03B0BDE8F08F40462146BE
:1005C000F9E7001B61EB0201001C41F580130018E4
:1005D0005B412018A2F5001747EB030140EAD570F4
:1005E000B6196D4111E06D084FEA360645EAC0754F
:1005F0004FEA0752001B61EB0201001C41F580111C
:1006000049084FEA30000019514132462B4603B0E9
:10061000BDE8F04FFFF713BF009801224000002310
:10062000D0EB020263EBE073009821464FEAE074DE
:10063000B8EB000061EB0401E9E783F000435BE7FE
:1006400081F0004158E72DE9F04D81EA030404F000
:10065000004B21F0004514464FF0000A23F0004102
:1006600050EA050220D054EA01021DD0C5F30A5712
:100670000246C5F31303C1F31300C1F30A5640F455
:10068000801543F48013A7EB0608101BD64608F22A
:10069000FD3873EB050002D308F1010801E0921860
:1006A0005B41B8F1000F03DA00200146BDE8F08D90
:1006B00000204FF48011064684460EE0171B73EBB2
:1006C000050705D3121B63EB050306434CEA010C37
:1006D00049084FEA300092185B4150EA0107EDD11A
:1006E00052EA030012D082EA040083EA05010843BB
:1006F00005D0101BAB4106D20122002306E00022E8
:100700004FF0004302E06FF0010253101AEB0600B5
:100710004CEB085110EB0A0041EB0B01BDE8F04D2A
:10072000FFF78DBE70B521F0004303430CD0C1F339
:100730000A550024D5EB040564EB0403D617AD1A63
:10074000B34102DB0020014670BD201841EB02518D
:1007500070BD0000064C074D06E0E06840F0010364
:1007600094E8070098471034AC42F6D3FFF7E4FC56
:1007700090260008B0260008202A04DB203A00FA60
:1007800002F1002070479140C2F1200320FA03F3E8
:10079000194390407047202A04DB203A21FA02F0E6
:1007A0000021704721FA02F3D040C2F120029140AB
:1007B000084319467047202A06DBCB17203A41FA36
:1007C00002F043EAE07306E041FA02F3D040C2F1DE
:1007D000200291400843194670472DE9F04D00234F
:1007E0001A461B1A8A4103DB00200146BDE8F08D42
:1007F000C1F30A52C1F3130141F480154FF0000B0D
:10080000D10702D100186D41521E0027044640F264
:10081000FF11384601EB620A3E4680460246002040
:100820004FF48011FFF7B7FFC2197141BB1846EBB7
:100830000100B4EB030C75EB000C04D3E41A65EB78
:10084000000517460E46241908F101006D41804647
:100850003428E3DDF91946EB0600091BA84103D251
:100860004FF0FF32134601E0002213461BEB070056
:1008700046EB0A51BDE8F04DFFF7E1BD00BFFEE7D2
:1008800070472DE9F0410246002500260020002394
:100890000024002791F803C00CF00F0591F803C065
:1008A0000CF0100CBCF1000F03D091F802C04CEA20
:1008B000050591F800C0BCF1000F31D0146800208C
:1008C0002BE04FF0010C0CFA00F3B1F800C00CEA79
:1008D00003069E4220D183004FF00F0C0CFA03F761
:1008E000BC4305FA03FC4CEA040491F803C0BCF1D4
:1008F000280F06D14FF0010C0CFA00FCC2F814C00E
:100900000AE091F803C0BCF1480F05D14FF0010C8B
:100910000CFA00FCC2F810C0401C0828D1D31460A7
:10092000B1F800C0BCF1FF0F34DD546800202EE0A8
:1009300000F1080C4FF0010808FA0CF3B1F800C000
:100940000CEA03069E4221D183004FF00F0C0CFAF3
:1009500003F7BC4305FA03FC4CEA040491F803C016
:10096000BCF1280F05D100F1080C08FA0CF8C2F808
:10097000148091F803C0BCF1480F07D100F1080CB6
:100980004FF0010808FA0CF8C2F81080401C082843
:10099000CED35460BDE8F08170B504460D46B4F97D
:1009A0000000FFF7DDFC06460B49FFF735FC286029
:1009B000B4F90200FFF7D4FC06460749FFF72CFC08
:1009C0006860B4F90400FFF7CBFC06460249FFF764
:1009D00023FCA86070BD000089A18B3A00BFFEE730
:1009E00010B54FF480600F490860042000F03EF914
:1009F00000BF4FF400600B490860042000F036F996
:100A000000BF4FF480600749091F0860042000F010
:100A10002DF900BF4FF4806002490860042000F007
:100A200025F910BD140C014010B54FF480600E493B
:100A30000860042000F01AF94FF400600A49091F09
:100A40000860042000F012F94FF480600649091F85
:100A50000860042000F00AF94FF480600249086041
:100A6000042000F003F910BD140C014070B50825F6
:100A70000024280217490860042000F0F7F819E064
:100A80004FF480601349091D0860042000F0EEF85F
:100A900000BF4FF480600F490860042000F0E6F8C2
:100AA0006006040E0B480838006800F4006008B1C6
:100AB00044F001042800A5F10101CDB2E0D14FF4CA
:100AC00080600449091D0860042000F0CFF820462A
:100AD00070BD0000100C014010B54FF480601C493F
:100AE0000860042000F0C2F84FF400601849091FA4
:100AF0000860042000F0BAF84FF480601449091F20
:100B00000860042000F0B2F811480C38006808B9F9
:100B1000012000E0002000F4006008B1002010BDBA
:100B20004FF400600A490860042000F09FF808486C
:100B30000C38006800F4006008B10020EFE74FF4C3
:100B4000006003490860042000F090F80120E6E707
:100B5000140C014010B54FF480600E490860042069
:100B600000F084F84FF400600A490860042000F0A7
:100B70007DF84FF480600749091F0860042000F0E9
:100B800075F84FF400600349091F0860042000F065
:100B90006DF810BD140C014010B54FF4806016497B
:100BA0000860042000F062F84FF400601249091F49
:100BB0000860042000F05AF84FF480600E49091FC5
:100BC0000860042000F052F80B480C38006800F46C
:100BD000006040B14FF4806007490860042000F0D5
:100BE00045F8002010BD4FF48060034908600420E0
:100BF00000F03CF80120F5E7140C014070B5044604
:100C0000082523E04FF4806017490860042000F0B5
:100C10002DF804F0800040B14FF400601249091F24
:100C20000860042000F022F806E04FF400600E494E
:100C30000860042000F01AF86006040E4FF480608B
:100C40000949091F0860042000F010F82800A5F1E8
:100C50000101CDB2D6D14FF4806003490860042071
:100C600000F004F870BD0000140C014000E0401ECC
:100C70000028FCD1704700000FB59BB0FE4800680B
:100C80001390FE4800681290FD4800681190FD48DE
:100C90000068109021990846FFF7BEFA0E9020993F
:100CA0000846FFF7B9FA0C901E990846FFF7B4FA08
:100CB0000B900C99FFF758FA0D900E99FFF754FA24
:100CC0000F9001F0CDFB1A901A991E98FFF7A4FA25
:100CD0001E901A992098FFF79FFA20901A99219850
:100CE000FFF79AFA2190E6480168E3480068FFF7A9
:100CF00093FA0E90E3480168E0480068FFF78CFA29
:100D00000D900E99FFF782FA4FF080410F90FFF798
:100D100083FA1990DB480168D9480068FFF77CFA2C
:100D20000E90D6480168D4480068FFF775FA0D9018
:100D30000E99FFF719FA4FF080410F90FFF76CFA08
:100D40001890D04801680068FFF766FA0F90CC4809
:100D500001680068FFF760FA0D90C84801680068F4
:100D6000FFF75AFA0B90C44801680068FFF754FA7D
:100D70000A900B99FFF74AFA0C900D99FFF746FA83
:100D80000E900F99FFF7F0F9179018992198FFF737
:100D900043FA0F9017992098FFF73EFA0E900F999B
:100DA000FFF734FA169017991E98FFF735FA0F904F
:100DB00019992198FFF730FA0E900F99FFF726FA4C
:100DC000159019992098FFF727FA0F9018991E98F7
:100DD000FFF722FA0E900F99FFF718FA1490AA491C
:100DE0001698FFF719FA0F90A84801680F98FFF7B7
:100DF000BBF9A6490860A4491598FFF70DFA0F90B2
:100E0000A34801680F98FFF7AFF9A14908609E4910
:100E10001498FFF701FA0F909E4801680F98FFF7AA
:100E2000A3F99C4908604FF07E501699FFF7F4F93A
:100E30000E901B99FFF798F90F90944801680F984E
:100E4000FFF792F91B904FF07E501599FFF7E4F9E8
:100E50000E901C99FFF788F90F908D4801680F9844
:100E6000FFF782F91C904FF07E501499FFF7D4F9E8
:100E70000E901D99FFF778F90F90864801680F983A
:100E8000FFF772F91D901D991098FFF7C5F90D90A5
:100E90001C991198FFF7C0F90B90129880F0004050
:100EA00009901B99FFF7B8F90A900B99FFF7AEF973
:100EB0000C900D99FFF7AAF977490E90FFF7ACF95E
:100EC0000F901399FFF750F96B4908601C9910981F
:100ED000FFF7A2F90D901D991198FFF79DF90B905E
:100EE00013991B98FFF798F90A900B99FFF73CF9B3
:100EF0000C900D99FFF78AF967490E90FFF78CF96E
:100F00000F901299FFF730F95C49086010991B980F
:100F1000FFF782F90D901D991298FFF77DF90B905C
:100F20001C991398FFF778F90A900B99FFF76EF95F
:100F30000C900D99FFF718F957490E90FFF76CF9CF
:100F40000F901199FFF710F94D49086011991B98FE
:100F5000FFF762F90D901C991298FFF75DF90B905D
:100F60001D991398FFF758F90A900B99FFF7FCF8B1
:100F70000C900D99FFF74AF947490E90FFF74CF98D
:100F80000F901099FFF7F0F83E4908600846016895
:100F90000068FFF741F90E90394801680068FFF7D3
:100FA0003BF90C90354801680068FFF735F90A9065
:100FB000314801680068FFF72FF909900A99FFF797
:100FC000D3F80B900C99FFF7CFF80D900E99FFF71F
:100FD000CBF80F9001F044FA1A9027481A9900684C
:100FE000FFF71AF92449086024481A990068FFF7A6
:100FF00013F92249086022481A990068FFF70CF992
:101000001F4908601F481A990068FFF705F91D4934
:101010000860084601680068FFF7FEF80690184867
:1010200001680068FFF7F8F8049014480168006848
:10103000FFF7F2F80290104801680068FFF7ECF83B
:1010400001900299FFF7E2F803900499FFF7DEF8A8
:1010500005900699FFF788F80790FFF78AF9CDE920
:101060000A010848016806480068FFF7D5F80590AE
:1010700002480168004811E04C00002050000020A8
:1010800054000020580000206F12833A5C000020BA
:1010900060000020640000206F12033A0068FFF730
:1010A000BBF804900599FFF75FF84FF08041069078
:1010B000FFF7B2F80790FFF75CF9CDE90801DDE929
:1010C0000A2301F0CDF84FF00052454BCDE90C0159
:1010D000FFF7D4F8CDE90E01FFF75EF9414908604A
:1010E0004148016841480068FFF796F8079040487A
:1010F000016840480068FFF78FF806900799FFF7EE
:1011000085F84FF080410890FFF786F80990FFF7C7
:1011100030F9CDE90A0100F05BFE4FF00052304B90
:10112000CDE90C01FFF7AAF8CDE90E01FFF734F97C
:10113000314908602C4801680068FFF76DF8069097
:101140002B4801680068FFF767F80490274801689A
:101150000068FFF761F80290264801680068FFF711
:101160005BF801900299FEF7FFFF03900499FFF7E7
:101170004DF805900699FFF749F80790FFF7F9F841
:10118000CDE90A01184801681A480068FFF744F8D9
:1011900005901748016815480068FFF73DF804906E
:1011A0000599FEF7E1FF4FF080410690FFF734F814
:1011B0000790FFF7DEF8CDE90801DDE90A2301F029
:1011C0004FF84FF00052064BCDE90C01FFF756F8EF
:1011D000CDE90E01FFF7E0F8084908601FB000BD37
:1011E000DCA54C40480000205800002050000020A2
:1011F000540000204C00002044000020400000204B
:1012000010B5752000F0F6FA682801D0002010BD56
:1012100017A000F031FD00216B2000F011FB44F617
:101220002060FFF723FD0021192000F009FB44F6A0
:101230002060FFF71BFD06211A2000F001FB44F699
:101240002060FFF713FD18211B2000F0F9FA44F687
:101250002060FFF70BFD18211C2000F0F1FA44F686
:101260002060FFF703FD07A000F006FD0120CEE798
:101270000D0A204D5055363035302020D5FDB3A312
:10128000A3A100000D0A204D5055363035302020E6
:10129000B3F5CABCBBAFCDEAB3C9A3A1000000003F
:1012A00000B5254840782449097840EA01202349BF
:1012B0000988401A00B2224908801F48C0781E4998
:1012C000897840EA01201D494988401A00B21C492A
:1012D0004880194840791849097940EA012017499E
:1012E0008988401A00B2164988801348407A12490A
:1012F000097A40EA012013490988401A00B21249CC
:1013000008800D48C07A0C49897A40EA01200D49CD
:101310004988401A00B20C4948800748407B06497A
:10132000097B40EA012007498988401A00B2064932
:10133000888000F00BF800BD9000002080000020A5
:1013400074000020860000207A0000205C480078AD
:10135000002858D05B48007870B900205A490880AE
:10136000488088805949086059490860594908608F
:10137000012054490870704752480078401C514978
:1013800008705548B0F900005049096808444F49B1
:1013900008605148B0F902004D49096808444C49B9
:1013A00008604D48B0F904004A49096808444949B1
:1013B000086044480078FB2825D142480078401E48
:1013C0004049087041480068097890FBF1F000B28C
:1013D0003D4908803E4800683A49097890FBF1F0A1
:1013E00000B2394948803B4800683649097890FB8B
:1013F000F1F0A0F5006000B2334988800020314947
:1014000008702F49087035480078002856D03448B5
:10141000007870B9002033490880488088803249BC
:101420000860324908603249086001202C49087080
:10143000A1E72B480078401C294908702D48B0F9D5
:101440000000294909680844274908602948B0F97B
:101450000200264909680844244908602548B0F973
:101460000400234909680844214908601C480078A1
:10147000FB2823D11A480078401E194908701A48E1
:101480000068097890FBF1F000B21649088017480F
:1014900000681349097890FBF1F000B211494880C7
:1014A000134800680E49097890FBF1F000B20D492D
:1014B000888000200A4908700849087000BF5AE770
:1014C0001900002028000020800000201C000020BF
:1014D00020000020240000207400002018000020BC
:1014E00038000020860000202C0000203000002062
:1014F000340000207A00002010B50E24FFF7ECFA2B
:1015000008B9002010BDD020FFF778FBFFF744FB9F
:1015100018B9FFF71FFB0020F4E73B20FFF76EFB35
:10152000FFF73AFBFFF7D8FAD120FFF767FBFFF789
:1015300033FB07E0FFF79AFAC4F10D01084A505453
:10154000FFF74EFA601EC0B20400F3D1FFF78EFA27
:1015500003494873FFF768FAFFF7FCFA0120D1E767
:101560009000002000BFFEE77047000070B500212A
:1015700000230F22C47804B3154C246804F4E064FB
:10158000C4F5E064210AC1F10403CA40447804FAB6
:1015900003F184781440214309010E4C0678A155CB
:1015A000047804F01F050124AC4005786D11AD00EE
:1015B00005F1E025C5F8004109E0047804F01F05B5
:1015C0000124AC40044D0678761145F8264070BDE4
:1015D0000CED00E000E400E080E100E0024901439E
:1015E000024A1160704700000000FA050CED00E0AF
:1015F0007047000029B1064AD2690243044BDA6100
:1016000004E0034AD2698243014BDA61704700006B
:101610000010024029B1064A92690243044B9A61C4
:1016200004E0034A92698243014B9A6170470000CB
:101630000010024030B500210022002400232D4D6F
:101640006D6805F00C0121B1042905D0082923D1CA
:1016500005E0294D056022E0274D05601FE0254D7E
:101660006D6805F47012234D6D6805F48034022511
:1016700005EB92421CB9214D554305600BE01D4D11
:101680006D6805F400351DB11C4D5543056002E041
:10169000194D5543056002E0174D056000BF00BFBE
:1016A000144D6D6805F0F0010909154D6B5C056876
:1016B000DD4045600F4D6D6805F4E061090A104D8D
:1016C0006B5C4568DD4085600A4D6D6805F46051CE
:1016D000C90A0B4D6B5C4568DD40C560054D6D6802
:1016E00005F44041890B074D6B5CC568B5FBF3F50C
:1016F000056130BD0010024000127A0000093D0073
:101700000000002010000020704710B500F002F823
:1017100010BD00000CB50020019000903348006817
:1017200040F480303149086000BF3048006800F460
:10173000003000900198401C0190009818B9019861
:10174000B0F5A06FF1D12948006800F4003010B165
:101750000120009001E0002000900098012843D172
:101760002348006840F010002149086008460068DE
:1017700020F0030008600846006840F0020008609E
:101780001A48406819494860084640684860084659
:10179000406840F4806048600846406820F47C104F
:1017A00048600846406840F4E81048600846006811
:1017B00040F08070086000BF0C48006800F00070C6
:1017C0000028F9D00948406820F003000749486024
:1017D0000846406840F00200486000BF0348406887
:1017E00000F00C000828F9D10CBD000000100240E8
:1017F0000020024070B50446FFF76EF908B90020DA
:1018000070BDD020FFF7FAF9FFF7C6F918B9FFF756
:10181000A1F90020F4E72046FFF7F0F9FFF7BCF943
:10182000FFF75AF9D120FFF7E9F9FFF7B5F9FFF70C
:101830001DF90546FFF7F8F8FFF78CF92846DFE7B2
:1018400070B505460C46FFF747F908B9002070BD92
:10185000D020FFF7D3F9FFF79FF918B9FFF77AF90E
:101860000020F4E72846FFF7C9F9FFF795F920466D
:10187000FFF7C4F9FFF790F9FFF76CF90120E6E7ED
:101880007047000010B51348006840F0010011498E
:10189000086008464068104908400E4948600846FC
:1018A00000680E4908400B4908600846006820F4AB
:1018B000802008600846406820F4FE0048604FF42D
:1018C0001F008860FFF721FF4FF0006004490860A7
:1018D00010BD0000001002400000FFF8FFFFF6FE00
:1018E00008ED00E010B50121094800F029F868B1C1
:1018F00008480088401C0749088007480088401CA9
:10190000054908800121024800F00BF810BD0000D5
:10191000000400406E00002070000020CA430282D4
:101920007047CA430282704721B1028842F0010227
:10193000028004E002884FF6FE731A40028070476E
:1019400030B50246002000230024158A05EA010371
:10195000958905EA010413B10CB1012000E00020D3
:1019600030BD1AB183890B43838102E083898B43A5
:1019700083817047002202881D4B98420ED01D4B78
:1019800098420BD0B0F1804F08D01B4B984205D045
:101990001A4B984202D01A4B984204D14FF68F73DB
:1019A0001A404B881A43174B984207D0164B98425F
:1019B00004D04FF6FF431A40CB881A4302808B882D
:1019C00083850B8803850A4B98420BD0094B9842BC
:1019D00008D00E4B984205D00D4B984202D00D4BCB
:1019E000984201D10B7A038601238382704700005D
:1019F000002C014000340140000400400008004079
:101A0000000C004000100040001400400040014065
:101A100000440140004801401FB504460121022056
:101A2000FFF7E8FD184890FBF4F080B2ADF8040031
:101A30004720ADF800000020ADF80600ADF8020028
:101A400069461248FFF796FF01211048FFF766FF2D
:101A50004FF4A060FFF7C2FD1D208DF80C000020A0
:101A60008DF80D0001208DF80E008DF80F0003A8F1
:101A7000FFF77CFD012211460448FFF772FF0121A8
:101A80000248FFF751FF1FBD40420F000004004015
:101A900001F40072B2F5007F00D100BFCA4302809A
:101AA000704721B1828942F40052828104E0828928
:101AB0004DF6FF731A4082817047F0B5034600244B
:101AC00000260025002040F66A17B94200D100BF69
:101AD0001846C1F3421401F01F06012707FA06F564
:101AE000012C01D10C3004E0022C01D1103000E0B7
:101AF00014301AB107682F43076002E00768AF434C
:101B00000760F0BD2DE9F04786B005460E4600247B
:101B1000A24600BFA1460027B08900B100BF2F46F2
:101B20002C8A4CF6FF700440F08804432C82AC8968
:101B30004EF6F3100440B088318908437189084398
:101B40000443AC81AC8A4FF6FF400440B0890443A3
:101B5000AC8201A8FFF76EFD1F48874202D1DDF875
:101B600010A001E0DDF80CA0A88900F4004040B10D
:101B70000AEBCA0000EB0A1031684900B0FBF1F82B
:101B800007E00AEBCA0000EB0A1031688900B0FBDD
:101B9000F1F86420B8FBF0F004012009642101FB96
:101BA0001089A88900F4004040B1322000EBC90040
:101BB000B0FBF1F000F00700044308E0322000EB36
:101BC00009106421B0FBF1F000F00F0004432C81F8
:101BD00006B0BDE8F08700000038014010B586B0BF
:101BE000044601210520FFF715FD01218803FFF7B9
:101BF00011FD4FF40070ADF8140018208DF8170097
:101C000003208DF8160005A91848FEF73AFE4FF498
:101C10008060ADF8140004208DF8170003208DF8C3
:101C2000160005A91148FEF72CFE01940020ADF81E
:101C30000800ADF80A00ADF80C00ADF810000C205B
:101C4000ADF80E0001A90A48FFF75CFF012240F23F
:101C500025510748FFF731FF01210548FFF721FF14
:101C600040210348FFF714FF06B010BD00080140F3
:101C70000038014000BFFEE7014A024900F096B873
:101C8000E12300083C000020490050EAC12018BFB1
:101C900004204A0D18BF40F0010040F2FF72B2EB81
:101CA000515F08BF40F00200012808BF05207047BF
:101CB0002DE9F0414F1E00EBC7010446D1E90001B8
:101CC00015461E4637F006020DD02A463346FEF76B
:101CD000D5FA7F1E04EBC703D3E90023FEF70CFC03
:101CE00037F00602F1D1022F25D0042F13D0062F92
:101CF00018BFBDE8F0812A463346FEF7BFFAD4E9A3
:101D00000A23FEF7F9FB2A463346FEF7B7FAD4E971
:101D10000823FEF7F1FB2A463346FEF7AFFAD4E973
:101D20000623FEF7E9FB2A463346FEF7A7FAD4E975
:101D30000423FEF7E1FB2A463346FEF79FFAD4E977
:101D40000223FEF7D9FB2A463346FEF797FAD4E979
:101D50000023BDE8F041FEF7CFBB0122FEF7E2BC55
:101D6000FEF7CABB0022134610461146FEF76BBCB5
:101D7000024A00201107FEF7D5BC000001FDFFFF5D
:101D800002E008C8121F08C1002AFAD17047704744
:101D9000002001E001C1121F002AFBD170470000A2
:101DA00001490860704700008C0000202DE9F041D7
:101DB00016460F460446002503E03946B047641C2A
:101DC0006D1C20780028F8D12846BDE8F08100007D
:101DD0002DE9F04D8D4F21F0004A86B005460C46A6
:101DE000BA452ADBAAEB070028430AD08848824577
:101DF00001DC1AD1CDB106B02846BDE8F04DFFF7A1
:101E0000ACBF844A844B2846FEF738FA07460E4694
:101E1000824A834B28462146FEF730FA06B03A46FE
:101E20003346BDE8F04DFEF767BB0120FFF7B8FF72
:101E300006B0BDE8F04DFFF795BF7A48824542DA1B
:101E4000BAF1795F0BDA2846FFF71EFF042808BFB6
:101E5000FFF78EFF284606B02146BDE8F08D2A46E2
:101E60000B461046FEF70AFA834602466E480E46B7
:101E70000B4606217844FFF71BFF5A463346FEF710
:101E8000FDF9804669488A465A463346042178441B
:101E9000FFF70EFF5A463346FEF7F0F900223B46A5
:101EA000FEF72AFB02460B4640465146FEF7CBFBA7
:101EB0002A462346FEF7E2F906B02A462346BDE845
:101EC000F04DFEF719BB284624F0004100223D46A4
:101ED0003B46FEF7B5FB4FF0FF32FEF723FC06460C
:101EE000024653480F460B4606217844FFF7E0FEB2
:101EF00032463B46FEF7C2F9CDE900014D48324675
:101F00003B4604217844FFF7D3FE32463B46FEF7BA
:101F1000B5F900222B46FEF7EFFA834602913046D0
:101F2000394600F017FB804643480D46504517DC04
:101F3000DDE900015A46029BFEF785FB42462B462F
:101F4000FEF79CF942462B46FEF7D6FA0122FEF731
:101F5000E9FB304A304BFEF770FB304A304B4CE027
:101F60004FF0000A52460B464046FEF7C5FACDE94F
:101F7000031052462B4610461946FEF77FF93246AB
:101F80003B46FEF75DFBDDE90332FEF75CFB0646F0
:101F90000F46DDE900015A46029BFEF754FB8346DB
:101FA0000091012230463946FEF7BCFB194A1A4B14
:101FB000FEF746FB06460F46012240462946FEF73D
:101FC000B1FB5A46009BFEF759F932463B46FEF7F5
:101FD00034FB06460F46012250462946FEF7A2FB77
:101FE0000E4DDFF858802A464346FEF729FB32465D
:101FF0003B46FEF725FB2A464346FEF721FB002C15
:10200000D8BF81F0004106B0BDE8F08D0000F03F80
:102010000000F07F075C143326A6913C182D445431
:10202000FB21F93F0000E03F280700003E070000C9
:10203000B2060000C80600003333EF3FFB21E93F42
:102040002DE9F84F04460D4621F0004000917349F8
:10205000814211DC7249884201DC06D12CB1204654
:102060002946BDE8F84FFFF778BE6E48002DCCBF7B
:102070006D496E49BDE8F88F6D49814211DD6D49AA
:102080008142D8BF4FF0FF366DDD20462946FFF76D
:10209000FBFD042808BFFFF76BFE20462946BDE87C
:1020A000F88F6549654F25F00045814233DD64496D
:1020B000814219DD002632464FF0804320462946F2
:1020C000FEF71AFA80468A46012220462946FEF784
:1020D00029FB00223B46FEF7B0FA42465346FEF784
:1020E000B2FA04460D463EE001260022BA463B46BF
:1020F00020462946FEF700FA80460F460022534646
:1021000020462946FEF799FA42463B46FEF79BFADF
:1021100004460D4627E04B4981421BDDDFF828A12C
:1021200002260022534620462946FEF7A7F8002241
:102130003B46FEF7E1F980460F4600225346204613
:102140002946FEF77AFA42463B46FEF77CFA0446F9
:102150000D4608E0032622462B4600203B49FEF7A9
:1021600072FA04460D4622462B4610461946FEF7E3
:1021700085F88B46824602460B46FEF77FF80746F7
:102180000246334888460B4606217844FFF790FD07
:1021900052465B46FEF772F882462E488B463A4618
:1021A000434605217844FFF783FD3A464346FEF750
:1021B00065F802460B46002E504659460CDAFEF7EB
:1021C0009BF922462B46FEF759F801B022462B46D2
:1021D000BDE8F04FFEF734BAFEF78EF922462B46E3
:1021E000FEF74CF81C4A7A4402EBC603D3E90023FD
:1021F000FEF723FA22462B46FEF71FFA174A7A44C7
:1022000002EBC603D3E90023FEF71AFA009A002A6C
:10221000B8BF81F00041BDE8F88F00000000104415
:102220000000F07F182D4454FB21F93FFB21F9BF3A
:102230000000DC3F0000203E0000F33F0000F03FC4
:102240000000E63F008003400000F83F0000F0BFC0
:10225000CA0400008804000026040000EE03000009
:102260002DE9F04D9446CCF1000423F000464CEAF1
:102270000404524F46EAD4749A46884621F000423C
:10228000BC4206D8454240EA050442EAD474BC4246
:1022900004D9BDE8F04D6246FFF762BDAAF1405592
:1022A000A5F17F6555EA0C040BD0022404EAAA7458
:1022B000434DDFF810E144EAD87452EA000B04D031
:1022C0000CE0BDE8F04DFFF7BBBE002C14BF012CA5
:1022D000BDE8F08D022C30D0032C32D056EA0C0B26
:1022E0000AD0BE4220D1BA4209D126F0804622F05F
:1022F00080423346114617E000291ADB25E0DFF85B
:10230000C8B0FB44002C04BFDBE90001BDE8F08D40
:10231000012C02BFDBE9000181F00041BDE8F08D36
:10232000022C0AD0032C0CD0BA4212D1B8F1000F03
:102330000BDA23482549BDE8F08D28462449BDE83D
:10234000F08D28467146BDE8F08D1D482149BDE855
:10235000F08D921B12153C2AC4BF19481D490EDC92
:10236000BAF1000FBEBF12F13C0F0020014606DBA0
:102370006246FEF768F921F00041FFF761FE002C8C
:1023800008BFBDE8F08D012C04BF81F00041BDE81D
:10239000F08D114A114B022C07D0FEF74EF92A4658
:1023A000BDE8F04D0A4BFEF748B9FEF746F92A465C
:1023B000BDE8F04D064BFEF743B900000000F07F8A
:1023C000182D4454FB2109C082030000FB21F9BFF2
:1023D000FB210940FB21F93F075C143326A6A13CF1
:1023E00000BF054A128802F04002002AF9D0C2B2AA
:1023F000014B1B1D1A8070470038014008B50121B0
:102400000820FFF707F94FF48060ADF800000320C3
:102410008DF8020014208DF8030069460A48FEF783
:1024200030FA4FF40060ADF8000003208DF8020090
:1024300014208DF8030069460348FEF722FA03A032
:10244000FFF71AFC08BD0000000C01406932632050
:10245000B3F5CABCBBAFCDEAB3C9A3A1000000006D
:102460002DE9F04704464FF07C512046FDF7D4FE9D
:10247000814625462E460C48A0EB66063546294681
:102480004846FDF7C9FE82462946FDF7C5FE80464F
:102490004FF07F51FDF7BDFE07462946FDF7BCFE14
:1024A00005462846BDE8F087DF59375F1CB54FF475
:1024B000E130FFF793FBFFF7A1FFFEF7A1FE4FF41A
:1024C0007A70FFF7A9FA38E01C480088012833DB4E
:1024D00000201A490880FFF70FF828B9184800882B
:1024E000401C00B21649088016480078012802D125
:1024F000FEF7D6FE21E0FEF7D3FE13491348FEF7A0
:102500004BFA1349B1F90400FDF72AFF04461049BC
:10251000B1F90200FDF724FF05460D49B1F90000AD
:10252000FDF71EFF0646084BCDE900549A6859682E
:1025300018683346FEF7A0FB00BFC5E76E00002019
:102540001400002019000020A00000207A000020C4
:10255000740000202DE9F04106460F46FEF73DF9D4
:1025600004000D4618BF0120284320F00040C0F1B0
:102570007F6000F1E040C00F0ED0301C18BF01207A
:10258000384320F00040C0F17F6000F1E040C00F10
:1025900004BF0120FFF704FC20462946BDE8F08176
:1025A000555555555555C53F7D6FEB0312D6D4BFD4
:1025B0005544880E55C1C93F3B8F68B52882A4BFDA
:1025C00088B20175E0EF493F09F7FD0DE13D023F9B
:1025D0004B2D8A1C273A03C0C88A599CE52A004023
:1025E00059018D1B6C06E6BF82922EB1C5B8B33F70
:1025F0004FBB610567ACDD3F182D4454FB21E93F1B
:102600009BF681D20B73EF3F182D4454FB21F93F09
:10261000E2652F227F2B7A3C075C143326A6813C8F
:10262000BDCBF07A8807703C075C143326A6913C3A
:10263000C4EB98999999C9BF711623FEC671BCBFA6
:102640006D9A74AFF2B0B3BF9AFDDE522DDEADBF0E
:102650002F6C6A2C44B4A2BF0D5555555555D53F26
:10266000FF8300922449C23F6E204CC5CD45B73F41
:10267000513DD0A0660DB13FEB0D76244B7BA93FB9
:1026800011DA22E33AAD903F0000000000000000A4
:10269000B02600080000002090000000801D000807
:1026A000402700089000002020040000901D000832
:1026B00000000000010203040102030406070809E8
:1026C00002040608000000000101000000000000F4
:1026D00000000000000000000000000000000000FA
:1026E00000000000000000000000000000000000EA
:1026F0000000000000000000000000000000803F1B
:1027000000000000000000000000000000000000C9
:1027100000000000000000000000000000000000B9
:1027200000000000000000000000000000000000A9
:102730000000000000000000000000000000000099
:0400000508000131BD
:00000001FF
